:020000040800F2
:10000000A05D0020590200085F1A0008931900083B
:100010005D1A0008DF030008DD340008000000005E
:100020000000000000000000000000009D0100082A
:100030002504000800000000F1010008391B000839
:1000400073020008730200087302000873020008BC
:1000500073020008730200087302000873020008AC
:10006000730200087302000873020008730200089C
:10007000730200087302000873020008730200088C
:10008000730200087302000873020008730200087C
:10009000730200087302000873020008730200086C
:1000A00073020008391C000873020008730200087C
:1000B000730200087302000873020008730200084C
:1000C000730200087302000873020008730200083C
:1000D000730200087302000873020008730200082C
:1000E000730200087302000873020008730200081C
:1000F000730200087302000873020008730200080C
:1001000073020008730200087302000873020008FB
:1001100073020008730200087302000873020008EB
:1001200073020008730200087302000873020008DB
:1001300073020008730200087302000873020008CB
:10014000730200087302000873020008811A000895
:1001500073020008730200087302000873020008AB
:10016000730200087302000873020008730200089B
:100170007302000873020008730200080000000008
:100180007302000873020008DFF80CD000F0EAF8F0
:10019000004800474D350008A05D00202B4B196832
:1001A0000868B0E8F04F80F30988BFF36F8F4FF015
:1001B000000080F3118870470000000006480068C6
:1001C000006880F3088862B661B6BFF34F8FBFF353
:1001D0006F8F00DF00BF00BF08ED00E0DFF80C000C
:1001E000016841F470010160704700BF88ED00E0D4
:1001F000EFF30980BFF36F8F144B1A681EF0100FD6
:1002000008BF20ED108A20E9F04F106008B44FF0CD
:10021000500080F31188BFF34F8FBFF36F8F03F04F
:10022000FBFD4FF0000080F3118808BC19680868D6
:10023000B0E8F04F1EF0100F08BFB0EC108A80F34A
:100240000988BFF36F8F704700BF00BF60000020B8
:10025000EFF30580704700000648804706480047D6
:10026000FEE7FEE7FEE7FEE7FEE7FEE7FEE7FEE766
:10027000FEE7FEE7E51B0008890100082DE9F05FB5
:100280000546002092469B46884606468146402405
:100290001BE0284641464746224600F053F85346A5
:1002A0005A46C01A914110D311461846224600F012
:1002B0003AF82D1A67EB01084F462246012000212B
:1002C00000F031F817EB00094E41201EA4F10104A3
:1002D000DFDC484631462A464346BDE8F09F40EA07
:1002E00001039B0703D009E008C9121F08C0042AB4
:1002F000FAD203E011F8013B00F8013B521EF9D29B
:100300007047D2B201E000F8012B491EFBD27047C2
:100310000022F6E710B513460A4604461946FFF7D1
:10032000F0FF204610BD202A04DB203A00FA02F13B
:10033000002070479140C2F1200320FA03F31943D3
:1003400090407047202A04DB203A21FA02F0002175
:10035000704721FA02F3D040C2F1200291400843D5
:1003600019467047064C074D06E0E06840F001036F
:1003700094E8070098471034AC42F6D3FFF708FF23
:10038000A8410008C841000870B58C1810F8015B3E
:1003900015F0070301D110F8013B2A1106D110F81E
:1003A000012B03E010F8016B01F8016B5B1EF9D122
:1003B0002B0705D40023521E0DD401F8013BFAE7A8
:1003C00010F8013BCB1A921C03E013F8015B01F813
:1003D000015B521EF9D5A142D8D3002070BDFEE7C3
:1003E000002070470020704710B5002204490548DE
:1003F00001F0E0FE0449034801F0D6FE002010BDE4
:100400007412002060020020740A002010B501461A
:10041000034801F0C9FE024801F0AAFE002010BD09
:10042000600200207047704770B5044600F0F0F895
:100430000546601C02D004480078044400F0E8F847
:10044000401BA042FAD370BD500000202DE9F84FA8
:10045000DFF87CB100224FF001084FF0030A4FF0A3
:100460000F090BF1040E00BF0B6808FA02F42340D9
:10047000A3426ED14D68022D01D0122D0ED1D508A8
:1004800000EB850CDCF820505607F70E09FA07F64A
:10049000B5430E69BE402E43CCF820600668550077
:1004A0000F790AFA05FC07F0030726EA0C06AF40AD
:1004B000374307604E68012E05D0022E03D0112E5F
:1004C00001D0122E0ED18668CF6826EA0C06AF4006
:1004D000374387604668A6430C79C4F30014944000
:1004E00034434460C6688C6826EA0C06AC4034434A
:1004F000C4604C68E40065D5364C256845F48045F9
:100500002560246822F0030504F480440094324CF2
:100510002E19D6F8084895072F0F09FA07F5AC43AE
:100520002E4DA84201D1002524E02D4DA84201D135
:1005300001251FE02B4DA84201D102251AE02A4DCA
:10054000A84201D1032515E0284DA84202D1042577
:1005500010E037E0264DA84201D105250AE0254DDF
:10056000A84201D1062505E0234DA84201D1072567
:1005700000E00825BD402543C6F80858DBF80040D8
:100580005D464E689C43F60300D51C432C60DEF8A4
:10059000004075464E689C43B60300D51C432C6052
:1005A0000B4D08352C684E689C43F60200D51C4361
:1005B0002C60074D0C352C684E689C43B60200D564
:1005C0001C432C60521C102AFFF44EAFBDE8F88F7C
:1005D000003C01404438024000300140000002402D
:1005E0000004024000080240000C024000100240DB
:1005F0000014024000180240001C024042694A40B8
:10060000426170470AB1816170470904FBE700004D
:10061000014880687047000050000020024881684F
:100620000278114481607047500000200B4810B5DB
:10063000016841F400710160016841F4806101606A
:10064000016841F480710160032000F08BF8002004
:1006500000F006F800F03EF8002010BD003C02401B
:1006600010B5014688B00022192000F05BF819206F
:1006700000F04CF813480024016841F001010160CA
:10068000006805A900F001000690684600F0BAFD78
:1006900000F0EEFD0C490D4AB0FBF1F10C48491E8B
:1006A000026040F2E732C0E90324C0E9011400F01F
:1006B000AFFF10B1012008B010BD054800F0C4FF25
:1006C000F9E700004438024040420F0000000140BA
:1006D000741A00200C4882B0016841F48041016026
:1006E000006800F4804000900748001F016841F056
:1006F000805101600068002200F0805000900F21BE
:10070000901E02B000F00EB84438024000F01F0204
:10071000012191404009800000F1E020C0F8001163
:1007200070470000F0B40E4B1B680C46C3F3022365
:10073000C3F10705042D00D90425191D072901D28D
:10074000002300E0DB1E012606FA05F1491E2140C8
:1007500099409E40761E16403143F0BC01F080B9AE
:100760000CED00E0064900F0070208684FF6FF03B1
:10077000184040EA0220034A104308607047000016
:100780000CED00E00000FA050068416200207047AF
:10079000F0B500680023446A31B1856A4FF482766F
:1007A00004EB15444D1E0AE044EA024181620FE069
:1007B00006EB8307C7595B1C04EB1744DBB2AB4263
:1007C000F6DB4FF4807303EB810144EA02424250AE
:1007D0000020F0BDD0F8EC0301F03CBFC1EBC1023A
:1007E00000EB8202D0F8EC03526C01F0A9BEC1EB21
:1007F000C10200EB8202D0F8EC03D2F8042201F02F
:10080000F4BED0F8EC0301F027BF10B504460A4649
:100810000B0601F07F00C0EBC00104EB810101D5A4
:10082000383101E001F5FC710870D009487094F886
:10083000B803012809D0012084F8B803206802F029
:100840003FFA002084F8B80310BD022010BD70B537
:100850000A460446090602F07F0005D5C0EBC00138
:1008600004EB8101383105E0C2EBC20104EB8101E8
:1008700001F5FC7100258D700870D009487094F85E
:10088000B803012809D0012084F8B803206802F0D9
:10089000F8FB84F8B853002070BD022070BD01F051
:1008A0000F01C1EBC10100EB8100B0F8100280B272
:1008B000704770B504460D460E0601F07F00C0EB90
:1008C000C00104EB810101D5383101E001F5FC7173
:1008D000ED0908704D708A60CB7000D0C88000258B
:1008E000022B00D10D7194F8B803012809D0012022
:1008F00084F8B803206802F037F9284684F8B85322
:1009000070BD022070BD70B50C4601F07F05C5EBCF
:10091000C50100EB8101C1F80C32C1F804220023AB
:10092000C1F8103281F8F93181F8F851036901F505
:10093000FC71012B00D10A616206027C006803D0C1
:1009400002F000FC002070BD02F0DCFAFAE770B59E
:100950000D460446090605F07F0005D5C0EBC00131
:1009600004EB8101383105E0C5EBC50104EB8101E1
:1009700001F5FC7101228A700870E809487094F84A
:10098000B803012807D084F8B823206802F0ABFB35
:10099000680602D007E0022070BD217C04F56F726A
:1009A000206802F04FFB002084F8B80370BD70B5DA
:1009B0000C4601F07F05C5EBC50100EB8101CB645E
:1009C0004A6400230B65012381F8393001F8385F50
:1009D0000369012B00D10A616206027C006803D022
:1009E00002F0B0FB002070BD02F08CFAFAE70000C4
:1009F0002DE9F84F044600680026054602F0F6FC93
:100A0000002875D1206802F01AFD002870D02068F7
:100A100002F015FD800704D52068416901F002014C
:100A20004161206802F00BFD010304F56F704FF087
:100A3000010B4FF0000A00904DD5206802F0E1FC58
:100A4000074646E0F80742D0F1B2206802F0EFFC1A
:100A50008046C00728D005EB4612C2F808BB2069C3
:100A6000012811D1C6EBC60004EB8001D2F8102B8F
:100A7000D1F80002C2F31202821AC1F81022D1F892
:100A800004221044C1F80402F1B22046FFF7AFFE81
:100A90002069012808D13EB9D4F80C0220B9206899
:100AA0000121009A02F0CEFA5FEA087007D52046CD
:100AB00000F0DCFA05EB46110820C1F8080B5FEAEC
:100AC000C86004D505EB46111020C1F8080B7F085B
:100AD000761C002FB6D1206802F0B1FC40034FF025
:100AE00040095ED5206802F085FC0746002656E0E6
:100AF000D2E1F80751D0F1B2206802F089FC8046BB
:100B0000C00724D0D5F834280BFA06F08243C5F884
:100B1000342805EB4610C0F808B92069012807D130
:100B2000C6EBC60004EB8000D0E91012114441640A
:100B3000F1B22046FFF752FE2069012807D136B9ED
:100B4000E06C20B920680121009A02F07BFA5FEA8C
:100B5000087004D505EB46110820C1F808095FEAC2
:100B6000C86004D505EB46111020C1F808095FEAFA
:100B7000486003D505EB4611C1F808995FEA887013
:100B800004D505EB46110220C1F808095FEA0860A8
:100B900003D53146204600F079FF7F08761C002FF0
:100BA000A7D1206802F04BFC00280DDAD5F8040824
:100BB00020F00100C5F80408204600F03DFA216845
:100BC000486900F000404861206802F038FC0005E8
:100BD0000BD5D5F80808C00702D0204600F062FA0D
:100BE0002068416901F400614161206802F027FC3E
:100BF000C0044CD5D5F8040820F00100C5F804085D
:100C00001021206802F0C2FB0020FF2107E000BF96
:100C100005EB4012C2F80819C2F8081B401C6268B4
:100C20008242F5D84FF0FF30C5F81808D5F81C08F7
:100C300040F00110C5F81C08206B60B1D5F884089D
:100C400040F00B00C5F88408D5F8440840F00B00CC
:100C5000C5F844080BE0D5F8140840F00B00C5F8BF
:100C60001408D5F8100840F00B00C5F81008D5F8A6
:100C7000000820F4FE60C5F80008217C2068009A76
:100C800002F0E0F92168486900F48050486120686A
:100C900002F0D5FB80047DD5206801F0A5FF206817
:100CA000C16821F47051C160206802F081FB78B105
:100CB0000320C4F81490E06000F0C4FA7749784A41
:100CC000014491420AD22068C16841F4705158E051
:100CD0004FF40070C4F80CA0606136E07149724AAC
:100CE0000144914204D22068C16841F4605148E057
:100CF0006E496F4A0144914204D22068C16841F4B0
:100D000050513EE06B496C4A0144914204D2206844
:100D1000C16841F4405134E06849694A0144914254
:100D200004D22068C16841F430512AE06549664A1E
:100D30000144914204D22068C16841F4205120E06E
:100D40006249421862498A4204D22068C16841F46B
:100D5000105116E05F49604A0144914204D2206874
:100D6000C16841F400510CE05C4908445C49884288
:100D70002068C16803D241F4E05102E00AE041F486
:100D8000C051C160204600F047F92068416901F474
:100D900000514161206802F052FBC00636D521683F
:100DA000886920F010008861D5F8208008F00F00D5
:100DB000C0EBC00004EB8007C8F3434007F5FC77A5
:100DC000022802D0062812D01BE047F6F07018EA7D
:100DD000000F16D0C8F30A1290462846F96802F0B0
:100DE00032FBF8684044F860B869404408E00822E3
:100DF0002846009902F027FBB969C8F30A10084495
:100E0000B8612068816941F010018161206802F0B9
:100E100016FB000707D5204600F012F9206841694B
:100E200001F008014161206802F009FBC00208D509
:100E3000F1B2204600F056F82068416901F48011B3
:100E40004161206802F0FBFA800208D5F1B2204629
:100E500000F04CF82068416901F4001141612068FC
:100E600002F0EDFA400007D52046FFF7B3FC2068FA
:100E7000416901F080414161206802F0E0FA4007D9
:100E80000AD520684568680702D52046FFF7B9FCF7
:100E90002068416829434160BDE8F88F405327FF2F
:100EA00000350C00401E1BFF40420F0000DC0BFF12
:100EB000804F1200808CF9FE20D6130060B6E5FE4C
:100EC00060E3160000D3CEFE40771B00C05BB3FE8C
:100ED000C091210000CA91FE20753800E05459FEEF
:100EE000E09C4100D0F8EC0301F006BCD0F8EC0324
:100EF00001F004BCF0B58BB004004FF0000556D0F3
:100F0000032084F8B903204600F054F8206801F06B
:100F1000F3FF04F1100128220F466846FFF7DFF9BE
:100F200094E80F0001F07AFE0021206802F09BFA9D
:100F300001260020C5EBC50104EB810181F8396071
:100F400001F8385FCD80C8708860C8606D1C48614A
:100F50000F2DEFD300214FF4827300BFC1EBC1020C
:100F600004EB820203EB810582F8F90182F8F811A3
:100F7000D18782F8FB01C2F80002C2F80402C2F86D
:100F80000C0222685051491C0F29E7D32822394608
:100F90006846FFF7A4F994E80F0001F00DFF84F80C
:100FA000B963206801F0FCFE00200BB0F0BD012009
:100FB000FBE7000000B5006887B0B0F1A04F25D175
:100FC0004FF4C050009002200190002002900320B6
:100FD00003900A20049069460D48FFF737FA0D4840
:100FE000016841F0800101600A481030016841F455
:100FF000804101600068002200F4804005900521D6
:101000004320FFF78FFB4320FFF780FB07B000BDB5
:10101000000002403438024010B50446C068012187
:1010200000B90021D4F8EC0301F0BEFBD4F8EC03C6
:10103000BDE8104001F087BBD0F8EC0301F0A2BB83
:10104000D0F8EC0301F0A4BB10B5044690F8B80347
:10105000012809D0012084F8B803206802F019FAA9
:10106000002084F8B80310BD022010BDD0F8EC2396
:1010700000F56F71104601F0AABB10B5044690F858
:10108000B80301280CD0012084F8B803206801F0CF
:101090007BFE206802F064F9002084F8B80310BDDC
:1010A000022010BD10B50446D0F8EC0301F0DCFBC3
:1010B0002068D0F8001E41F00101C0F8001E206A2F
:1010C000002804D00248016841F00601016010BD0B
:1010D00010ED00E02DE9F0470E46050065D0DFF881
:1010E0001481D8F80000F7B200F00F00B04207D228
:1010F00088F80070D8F8000000F00F00B04254D11A
:1011000028683D4C810712D5400703D5206840F47C
:10111000E05020602878000703D5206840F4604044
:1011200020602068A96820F0F0000843206028783B
:10113000C0072DD0304968680839012812D002282C
:1011400013D0032811D00968890700292DDA2168F6
:1011500021F0030101432160FFF75AFA814641F271
:10116000883A0EE009688903EFE709688901ECE72E
:10117000FFF74EFAA0EB0901514502D90320BDE863
:10118000F0872068696800F00C00B0EB810FEFD1A8
:10119000D8F80010404601F00F01B14207D907709E
:1011A000006800F00F00B04201D00120E7E7287886
:1011B000400705D52068E96820F4E0500843206026
:1011C0002878000706D52068296920F4604040EAA5
:1011D000C100206000F05CF82168084AC1F30311E7
:1011E000515CC840064908600020FFF739FA00202A
:1011F000C5E70000003C0240083802407441000886
:101200005C0000200F2202600C4A136803F0030305
:101210004360136803F0F0038360136803F4E05342
:10122000C36012684FF4E05303EAD202026104483B
:10123000006800F00F0008607047000008380240A6
:10124000003C024001480068704700005C0000203C
:101250000448054900680968044AC1F38221515CC9
:10126000C84070475C0000200838024084410008F4
:101270000448054900680968044AC1F34231515CD9
:10128000C84070475C0000200838024084410008D4
:10129000154810B5006810F00C02144813D0411026
:1012A000042A0FD0082A0ED10F4C241F226823686D
:1012B00002F03F025B0207D52068C0F38810A0FB54
:1012C000010106E0084610BD2168C1F38811A1FBA9
:1012D00000010023FEF7D2FF2168C1F30141491C40
:1012E0004900B0FBF1F010BD083802400024F400C2
:1012F0002DE9F84F050076D02878DFF8F8B2BE4C1B
:10130000C00749D0DBF800105846C1F3810101291C
:1013100008D00068C0F3810002280AD1201D0068AF
:10132000400206D52068800336D568680028E2D0E0
:1013300032E06868B0F5803F10D0B0F5A02F20688B
:1013400010D020F480302060206820F480202060BD
:101350006868A0B1FFF75CF906460CE0206840F42D
:101360008030F4E740F480202060F7E7FFF750F981
:10137000801B642873D820688003F7D50CE0FFF742
:1013800047F9064605E000BFFFF742F9801B6428D5
:10139000F0D820688003F7D42878DFF860828007CF
:1013A0004FF000093ED5DBF80010584611F00C0F45
:1013B00009D00068C0F3810002280BD18D48001FBE
:1013C0000068400206D42068800715D5E868012827
:1013D00009D111E0E868B8B10120C8F80000FFF7B2
:1013E00017F9064605E002E1FFF712F9801B022813
:1013F000C0D820688007F7D52068296920F0F80058
:1014000040EAC10020600DE0C8F80090FFF700F945
:10141000064604E0FFF7FCF8801B02281FD820686E
:101420008007F7D42878000722D5724E744869697E
:101430006C3671B101210160FFF7EAF8074604E05C
:10144000FFF7E6F8C01B022809D830688007F7D5F7
:101450000EE0C0F80090FFF7DBF8074605E083E0F8
:10146000FFF7D6F8C01B02287ED830688007F7D473
:101470002878400768D5DFF87CA100270AF1380AF0
:10148000DAF80000C0000BD4DAF8001041F0805107
:10149000CAF80010DAF80000012700F08050009030
:1014A000584E3068C00510D4306840F48070306009
:1014B000FFF7AEF8009005E0FFF7AAF80099401A90
:1014C000022851D83068C005F6D54A4EA86868365B
:1014D00001280FD00528306810D020F001003060BE
:1014E000306820F004003060A868B8B1FFF790F8C9
:1014F00000900FE0306840F00100F4E740F0040095
:101500003060F7E7FFF784F80099411A41F288301C
:10151000814264D830688007F4D50EE0FFF778F890
:10152000009007E0FFF774F80099411A41F2883003
:10153000814254D830688007F4D42FB1DAF8001013
:1015400021F08051CAF80010A869C0B3DBF8001080
:10155000C1F3810102294AD00228484607D0C8F8C1
:101560006000FFF755F800E039E005463AE04746ED
:10157000C8F86000FFF74CF8064604E0FFF748F8AB
:10158000801B02282BD820688001F7D4D5E90701F9
:101590000843A96A1C4A490802EB01416A6A41EA08
:1015A0008211084395F82C1040EA01611148001F90
:1015B000016001203866FFF72BF8054605E014E0CE
:1015C000FFF726F8401B022809D820688001F7D5CC
:1015D0000BE000BFFFF71CF8401B022802D90320D4
:1015E000BDE8F88F20688001F4D40020F8E70120DE
:1015F000F6E7000008380240003802400000474289
:10160000800E4742007000400000FFFF70477047A7
:1016100010B5040003D094F8390010B107E00120A0
:1016200010BD002084F83800204600F00CF802209D
:1016300084F83900211D206800F004FB012084F8A3
:101640003900002010BD70470168CA6842F00102ED
:10165000CA600068016841F0010101600020704724
:10166000704770B50446006801694FF00005C94332
:10167000890715D4C168C943890711D4E91E0161DE
:1016800001202076206880698007204602D0FFF77D
:10169000E7FF04E000F098F8204600F096F8257681
:1016A00020680169C943490717D4C168C94349077C
:1016B00013D46FF004010161022020762068806954
:1016C00010F4407F204602D0FFF7CAFF04E000F08C
:1016D0007BF8204600F079F8257620680169C94337
:1016E000090716D4C168C943090712D46FF008016D
:1016F0000161042020762068C0698007204602D05E
:10170000FFF7AEFF04E000F05FF8204600F05DF860
:10171000257620680169C943C90617D4C168C94341
:10172000C90613D46FF010010161082020762068EB
:10173000C06910F4407F204602D0FFF791FF04E01B
:1017400000F042F8204600F040F825762068016954
:10175000C943C90708D1C168C943C90704D1891E53
:101760000161204600F032F820680169C94309068A
:1017700009D4C168C943090605D46FF0800101612D
:101780002046FFF743FF20680169C943490609D491
:10179000C168C943490605D46FF040010161204684
:1017A00000F01EF820680169C94389060BD4C1689E
:1017B000C943890607D46FF0200101612046BDE8C6
:1017C0007040FFF724BF70BD704770470068034941
:1017D000884201D1FEF722BF70470000000001409F
:1017E000704770B5040004D094F83900002510B19A
:1017F00006E0012070BD84F83850204600F022F841
:10180000242084F839002068C16821F40051C160A7
:10181000204600F077FA2068016921F490410161C7
:101820002068416921F02A0141612068C16841F4C2
:101830000051C160E563202084F8390084F83A0043
:10184000002070BDF0B587B0044614216846FEF74D
:101850005FFD1D4F22681D49022301240325072631
:101860001B48BA4213D1194A1432176847F01007BF
:101870001760126802F0100205920A6842F0010235
:101880000A60096801F001010591690215E0114F34
:10189000BA4217D10D4A1032176847F40037176063
:1018A000126802F4003205920A6842F001020A60EE
:1018B000096801F0010105910C218DE87A00694663
:1018C000FEF7C4FD07B0F0BD001001403038024003
:1018D00000000240004400402DE9F843044690F81F
:1018E00039001F4616460D46202850D1A5B19EB19D
:1018F00094F8380001284AD0012084F838004FF0CD
:101900000008C4F83C80212084F83900FEF780FEEE
:10191000A6848146E68426E00120BDE8F883E08CB9
:10192000401EE084A0684B46B0F5805F4FF0000297
:101930004FF080012046009703D000F039FBE8B952
:101940000DE000F035FBC8B928882168C0F3080015
:101950004860206908B16D1C05E0AD1C03E02168FA
:1019600015F8010B4860E08C0028D8D14B460022C6
:1019700040212046009700F01BFB08B10320CCE774
:10198000202084F8390084F838800020C5E7022040
:10199000C3E7FEE7F0B587B014216846FEF7B8FC50
:1019A0001D480024016841F004010160016801F054
:1019B00004010591016841F080010160016801F0B6
:1019C00080010591016841F001010160016801F0A9
:1019D00001010591016841F00801016000680F4FA5
:1019E00000F008004FF4704605900022314638465A
:1019F000FEF708FE0125CDE9005469460848029427
:101A0000FEF724FD0096CDE901546946384603945B
:101A1000FEF71CFD07B0F0BD30380240000C02405C
:101A20000000024010B500220849094800F053FDAB
:101A30000849074800F045FF0749054800F0ACFB9E
:101A4000BDE81040024800F089BF00000C000020F3
:101A500060020020A001002040000020FEE7704747
:101A60000907090E002806DA00F00F0000F1E02057
:101A700080F8141D704700F1E02080F800147047D2
:101A80000148FEF7B5BF0000840400202DE9F84F9F
:101A90000F46C1EBC70100EB810582460668D5E918
:101AA0001301441A286C3835A04200D20446E01CC9
:101AB0004FEA900806EB471916E0441AA868A042BE
:101AC00000D20446E01C4FEA90089AF810000090FB
:101AD000A3B2FAB23046E96801F0ECFCE8682044B1
:101AE000E860A8692044A861D9F8180980B2404587
:101AF00005D9D5E90501814201D20028DDD134B9EB
:101B00000120D6F83418B8408143C6F834180020B4
:101B1000BDE8F88FFFF786FF064D4FF4805400BFF5
:101B200001F0E6FF21462846FEF768FD642001F03B
:101B30009BFDF5E7000C024010B5502080F31188A2
:101B4000BFF34F8FBFF36F8F02F030FA18B1044923
:101B50004FF080500860002080F3118810BD000015
:101B600004ED00E030B593B030216846FEF7D0FBBD
:101B700014210CA8FEF7CCFB18480025016841F0A1
:101B800080510160006800F0805011901448016895
:101B900041F4804101600068022400F4804011900B
:101BA00001200090000401908001CDE9064004204E
:101BB00008904820CDE9090403200B906846FFF700
:101BC00097FB0CA90F2081E83100E002CDE90F0559
:101BD00002210CA8FFF77EFA13B030BD4038024056
:101BE000007000401048016841F4700101600F4826
:101BF000016841F0010101600C4A002108321160C6
:101C000002680B4B1A400260031D0A4A1A60026800
:101C100022F48022026005480C3001600249580617
:101C2000803908607047000088ED00E0003802400D
:101C3000FFFFF6FE103000240148FFF712BD000040
:101C4000741A0020F0B50268234B244D244E254F12
:101C5000254C4FF0804C984209D0604507D0A842EF
:101C600005D0B04203D0B84201D0A04204D122F046
:101C7000700E4A6842EA0E0298421BD0604519D0A5
:101C8000A84217D0B04215D0B84213D0A04211D00C
:101C9000164DA8420ED0164DA8420BD0154DA842A5
:101CA00008D0154DA84205D0144DA84202D0144DBD
:101CB000A84203D122F44075CA682A4302608A68A8
:101CC000C2620A688262984201D0A04201D10969C9
:101CD000016301214161F0BD0000014000040040AA
:101CE00000080040000C004000040140004001409A
:101CF000004401400048014000180040001C004022
:101D0000002000402DE9F04104460068016921F4FB
:101D10004052E168114301612168C86849F20C62D0
:101D200090432369A268E5691A4363692B431A4308
:101D30000243CA602168486920F44072A0691043D8
:101D40004861E1696425B1F5004F9748974A2168D9
:101D50004FF032083FD0914201D081427CD1FFF751
:101D600087FA00EBC00101EB001061688900B0FB4D
:101D7000F1F6FFF77DFA00EBC00101EB001061689E
:101D80008900B0FBF1F0B0FBF5F06FF018014843AB
:101D900006EB800108EB0110B0FBF5F000F0F00657
:101DA000FFF766FA00EBC00101EB001061688900E3
:101DB000B0FBF1F0B0FBF5F006EB0016FFF758FAB8
:101DC00000EBC00101EB001061688900B0FBF1F786
:101DD000FFF74EFAD2E0914201D081423DD1FFF7A8
:101DE00047FA00EBC00101EB001061684900B0FB4D
:101DF000F1F0B0FBF5F00601FFF73AFA00EBC00195
:101E000001EB001061684900B0FBF1F7FFF730FA11
:101E100000EBC00101EB001061684900B0FBF1F07C
:101E2000B0FBF5F06FF01801484307EB800108EBB9
:101E3000C100B0FBF5F000F0F80006EB4006FFF73C
:101E400017FA00EBC00101EB001061684900B0FB1C
:101E5000F1F7FFF70DFA3CE055E0FFF7F9F900EB79
:101E6000C00101EB001061684900B0FBF1F0B0FB6C
:101E7000F5F00601FFF7ECF900EBC00101EB0010F3
:101E800061684900B0FBF1F7FFF7E2F900EBC00130
:101E900001EB001061684900B0FBF1F0B0FBF5F018
:101EA0006FF01801484307EB800108EBC100B0FB5D
:101EB000F5F000F0F80006EB4006FFF7C9F900EB7B
:101EC000C00101EB001061684900B0FBF1F7FFF7BA
:101ED000BFF900EBC00101EB001061684900B0FBE5
:101EE000F1F0B0FBF5F06FF01801484307EB80010B
:101EF00008EBC100B0FBF5F000F0070021683044AA
:101F00008860BDE8F081FFF7A3F900EBC00101EBA9
:101F1000001061688900B0FBF1F6FFF799F900EB5A
:101F2000C00101EB001061688900B0FBF1F0B0FB6B
:101F3000F5F06FF01801484306EB800108EB011043
:101F4000B0FBF5F000F0F006FFF782F900EBC001FE
:101F500001EB001061688900B0FBF1F0B0FBF5F017
:101F600006EB0016FFF774F900EBC00101EB00105F
:101F700061688900B0FBF1F7FFF76AF900EBC00177
:101F800001EB001061688900B0FBF1F0B0FBF5F0E7
:101F90006FF01801484307EB800108EB0110B0FB1C
:101FA000F5F000F00F00A9E7001401400010014017
:101FB0002DE9F041984617460E460446069D1DE061
:101FC000681C1BD02DB1FEF723FBA0EB0800A84234
:101FD00014D92068C16821F4D071C16020684169BA
:101FE00021F001014161202084F8390084F83A0091
:101FF000002084F838000320BDE8F08120680068E4
:1020000036EA000004D00020B842D9D00020F3E71F
:102010000120F9E7D0F8180220B10021C0F814120D
:10202000084670470220704770B50546D0F8184240
:1020300000F01DFBC4F80C02D5F8180248B1D5F821
:102040001C12D4F80402CA6804F5037190470020FA
:1020500070BD022070BD70B504460025812100F0DE
:102060005FFA0121204600F05BFA8221204600F051
:1020700057FAD4F8180250B1D4F81C0204F50674CB
:1020800040688047206801F039FA00202060284627
:1020900070BD10B5D0E9864159B194F80002FF280F
:1020A00007D08B6894F8012221469847FF2084F8D6
:1020B0000002002010BD00000A2101800048704786
:1020C000C80000204321018000487047180100200B
:1020D0004321018000487047D40000204321018043
:1020E000004870475C0100202DE9F0410446007C67
:1020F00000254FF4007670B3402302228121204650
:1021000000F0FEFA402302220121204600F0F8FAF6
:10211000082303228221204600F0F2FA4FF40770D0
:1021200001F06CFAC4F81802F0B10746D4F81C02AA
:10213000006880470020C7F81402C7F81802207C06
:10214000D7F8042290B140230121204600F0EBFA99
:102150002846BDE8F081FFE7334602228121204670
:1021600000F0CEFA3346CEE70125F1E73346EBE740
:1021700010B5D0F8181269B1027C002AD1F80422F7
:1021800005D04023012100F0CEFA002010BD4FF40D
:102190000073F7E7022010BD02460220002902D09A
:1021A0000020C2F81C127047D0F81802C0F80412C0
:1021B00000207047D0F81802C0F81022C0F80812AA
:1021C0000020704770B50646D0F8185208780C46C3
:1021D00010F0600121D0202927D1E288AAB10006A1
:1021E000607807D5D6F81C128B6829469847E28894
:1021F000294617E085F80002A07985F80102E288F7
:102200002946304600F038F80FE0D6F81C12607806
:1022100000228B682146984707E060780A2804D19D
:1022200003490122304600F041F8002070BD000053
:10223000C400002010B5D0F8142252689047002046
:1022400010BD134610B50A46002100F06CFA0020BC
:1022500010BD134610B50A46002100F00EFB002009
:1022600010BD10B50446802100F0DEFA2046BDE81E
:102270001040002100F0D8BA10B50323C0F808219F
:10228000C0F8F431C0F80C2113460A46002100F0D2
:102290004AFA002010BD10B505210023C0F8F41142
:1022A0001A46194600F03FFA002010BD10B502236F
:1022B0008261C0F8F431C26113460A46002100F081
:1022C000DCFA002010BD10B504210023C0F8F41181
:1022D0001A46194600F0D1FA002010BD10B50A4682
:1022E000024903A000F0D4F8004810BD7408002093
:1022F00043444320436F6E666967000012200880E4
:10230000004870472C00002010B50A46024903A07F
:1023100000F0BEF8004810BD74080020434443207C
:10232000496E746572666163650000000420088070
:10233000004870472800002010B50A46024903A053
:1023400000F0A6F8004810BD7408002053544D69F1
:1023500063726F656C656374726F6E69637300009E
:1023600010B50A46024903A000F092F8004810BDDB
:102370007408002053544D333220566972747561CD
:102380006C20436F6D506F727400000010B50A46E8
:10239000024903A000F07CF8004810BD740800203A
:1023A00030303030303030303030314100000000DB
:1023B000F8B5044648880D46010A08294BD2DFE8E3
:1023C00001F04A0409174A4A4048D4F81012207C08
:1023D0000A6832E0207C02260028D4F8140205D0D6
:1023E000C16A684688470146467041E0816AF8E75D
:1023F000C0B206282FD2DFE800F003080D12171C28
:10240000D4F81012207C4A6817E0D4F81012207C0F
:102410008A6812E0D4F81012207CCA680DE0D4F863
:102420001012207C0A6908E0D4F81012207C4A6956
:1024300003E0D4F81012207C8A696946904701466F
:1024400016E0207C38B9D4F81402416B68468847FE
:10245000F5E7207C20B129462046FFF702FFF8BDB2
:10246000D4F81402016B684688470146072048707B
:10247000BDF800000028F2D0EA88002AEFD082429E
:1024800000D90246ADF800202046FFF70FFFF8BD47
:1024900070B5002300281DD00446002502E06D1C05
:1024A000EDB2641C2678002EF9D1022404EB450419
:1024B0001480CC545B1C0322CA5400245B1C06E02D
:1024C000CA545B1CDAB28C54521CD3B2401C027842
:1024D000002AF5D170BD10B580B1D0F8143213B117
:1024E0000023C0F8143209B1C0F81012012180F89D
:1024F000FC11027000F0C0F8002010BD022010BDD9
:1025000010B50024D0F82002FEF7A1F930B101285F
:1025100001D0022801D0022400E00124204610BD91
:1025200010B50024D0F82002FEF76FF930B1012871
:1025300001D0022801D0022400E00124204610BD71
:102540002DE9F0411746044641B1D4F8140242691E
:102550008AB394F8FC01032842D043E0D4F8F41184
:10256000002504F11400022933D1D0E902639E4210
:1025700007D9F31A83609AB239462046FFF769FEFD
:1025800012E04068B0FBF3F103FB1101A1B99842DE
:1025900012D3D4F8F81188420ED2002211462046F8
:1025A000FFF757FEC4F8F85100231A461946204693
:1025B00000F0B9F80DE012E0D4F81402C16829B1B6
:1025C00094F8FC01032801D1204688472046FFF7F4
:1025D00062FE94F80002012804D184F8005201E060
:1025E000204690470020BDE8F08170B515460446AE
:1025F00041B1D4F8140282693AB394F8FC0103287B
:1026000024D025E0D4F8F41104F5827003291FD1F9
:10261000D0E902218A420BD9531A836008468342CB
:1026200000D303469AB229462046FFF70AFE0FE080
:10263000D4F81402016929B194F8FC01032801D1EE
:10264000204688472046FFF73EFE01E0204690479F
:10265000002070BD0020704710B5012180F8FC11EA
:10266000D0F81422017952689047002010BDD0F8AC
:102670002002FEF714B9000010B5017841BB1549DE
:102680000222C1F8EC03C0F820124FF0A04008600D
:10269000042048600020C1E90320C1E90502C861A7
:1026A00008624862C86208630846FEF723FC08B166
:1026B000FDF7B9FE80210748FEF766F840220021A9
:1026C0000448FEF765F8802201210248FEF760F811
:1026D000002010BD840400200A0601F07F01D0F81C
:1026E0002002C1EBC10100EB810002D590F83A0055
:1026F000704790F8FA01704700207047002070473B
:1027000070B51D4613460024D0F820022A46FEF775
:10271000D0F830B1012801D0022801D0022400E015
:102720000124204670BD10B50024D0F82002FEF729
:10273000EAF830B1012801D0022801D0022400E0DB
:102740000124204610BD70B50022044640231146E6
:10275000FFF7D6FF40252B46002280212046C4F8F3
:102760001051FFF7CDFF0120256284F8FC01D4F859
:10277000180228B1D4F81402217942682046904703
:10278000002070BD90F8FD1180F8FC11002070470A
:1027900010B590F8FC11032904D1D0F81412C969BE
:1027A00001B18847002010BD01740020704710B5AA
:1027B0000024D0F82002FEF747FC30B1012801D0F8
:1027C000022801D0022400E00124204610BD70B58B
:1027D000044600F50270054600F05FF80120C4F8D9
:1027E000F401B4F80E02C4F8F80194F8080210F0ED
:1027F0001F010AD001290DD0022910D000F080015C
:10280000204600F011F8002070BD2946204600F057
:10281000AAF8F8E72946204600F08CF9F3E72946A4
:10282000204600F019F9EEE710B50024D0F8200298
:10283000FEF78DF830B1012801D0022801D0022422
:1028400000E00124204610BD10B50024D0F820027D
:10285000FEF713FC30B1012801D0022801D0022478
:1028600000E00124204610BD90F8FC1180F8FD1115
:10287000042180F8FC110020704710B50024D0F826
:102880002002FEF794F830B1012801D0022801D0CF
:10289000022400E00124204610BD0A7802704A7824
:1028A00042708A78CB7802EB032242800A794B7916
:1028B00002EB032282808A79C97902EB0121C1806F
:1028C00070470246002011B1C2F81412704702206E
:1028D000704710B5D0F8142202241AB1126890473C
:1028E00000B90024204610BD70B50E461A4D8978F7
:1028F00004462970012928D894F8FC01022802D046
:10290000032822D105E099B10320616084F8FC011D
:1029100009E091B1606888420AD0C1B22046FFF751
:1029200089FC297861602046FFF7D3FF02280CD08C
:102930002046BDE87040FFF7C6BC022084F8FC01C9
:1029400020466160FFF776FCF2E731462046BDE89D
:102950007040FFF786BC0000C000002010B5FFF7F4
:1029600073FF002010BD2DE9F04100264B780125B2
:1029700032460A2B43D2DFE803F03C58425142086A
:1029800005422A27FFF714FD63E004468888C8B98A
:10299000C888B8B9887800F07F0794F8FC0103284C
:1029A00010D084F8FE7139462046FFF700FF20461C
:1029B000FFF789FC1FB1022084F8FC0149E084F88C
:1029C000FC5146E020461AE0FFF78EFF41E0CB883D
:1029D000012B14D190F8FC31022B02D0032B0ED125
:1029E00004E08260012200F1080114E00122011DCF
:1029F00011E090F8FC21022A04D0032A02D0FFF74C
:102A000030FC26E0C560D0F8041209B10321C16092
:102A1000022200F10C01FFF749FC1AE00446488845
:102A2000012816D1C4F804520BE0044690F8FC01CA
:102A3000022801D00328C5D14888012809D1C4F84B
:102A40000422D4F814028268204690472046FFF7FB
:102A50003AFC3046BDE8F08170B50D460446287852
:102A600000260979C0F34110012806D06878A0B388
:102A700001281FD003283FD107E0D4F814022946CB
:102A8000826820469047002070BD94F8FC0102281F
:102A900017D003282CD1688828B921B1802902D009
:102AA0002046FFF7C1FED4F814022946826820466A
:102AB000904713E094F8FC01022802D0032817D1B4
:102AC00003E0C9B180291BD116E06888A0B9480687
:102AD00004D02046FFF714FDE5E703E02046FFF7AA
:102AE000F2FB09E094F8FC01022807D003280BD080
:102AF00029462046FFF7B5FB304670BD4806FBD09F
:102B00002046FFF791FEF7E7080601F07F0004EB8F
:102B1000001501D5143501E005F582752046FFF753
:102B2000DBFD00B101202860022229462046FFF784
:102B3000BDFBE1E770B5054690F8FC010C460328A3
:102B40000DD1207901280AD8D5F8140282682846C8
:102B50009047E08830B92846FFF7B5FB02E02846E9
:102B6000FFF77FFB002070BD30B54C781D4B012274
:102B70000D78AA40012CD0F81C4818D044EA024233
:102B8000C0F81C280A7800EB4210D0F8002B120481
:102B90000BD4D0F8002B0C89C4F30A042243C97863
:102BA00043EA81410A43C0F8002B002030BD92B2B5
:102BB0001443C0F81C480C7800EB4410D0F80029EE
:102BC0001204F2D4D0F800290D89C5F30A052A436E
:102BD000C978890441EA84510A431A43C0F800299C
:102BE000E3E7000000800010D0F800196FF30A013D
:102BF000C0F80019D0F80818C1F34101022905D125
:102C0000D0F8001941F00301C0F80019D0F80418F9
:102C100041F48071C0F804180020704770B5044674
:102C2000049D06990D9801290CD0E06840F0400001
:102C3000E060204600F028F84FF48030A063012DBA
:102C400016D01DE0A16B21F48031A163E1680D4A2B
:102C50001140E160E16821F44011E160012803D1F5
:102C6000E06840F48010E060204600F00DF8E6E7F0
:102C7000A06840F00600A060A06840F02000A060BE
:102C8000002070BDBFFFBDFF01220C4902E0521CB5
:102C90008A420BD80369002BF9DA026942F001027B
:102CA0000261012204E0521C8A4201D903207047CC
:102CB0000369DB07F7D1002070470000400D0300D7
:102CC000F0B50D4604464F780126F206D3002D4993
:102CD000287804EB4010012F14D0D0F8007B27F4A3
:102CE0000047C0F8007B287804EB4010C0F8002BA8
:102CF000287804EB4010C0F8003B01202A7804EB50
:102D000042122BE0D0F8007927F40047C0F8007990
:102D1000287804EB4010C0F80029287804EB401014
:102D2000C0F8003901202A7804EB421202E0401C6E
:102D3000884211D8D2F808395B00F8D41021204617
:102D400000F024FBD4F81C0829788E40B1B28843E7
:102D500014E0401C884201D90320F0BDD2F8083BA2
:102D6000DB06F6D4D4F8040840F48060C4F8040804
:102D7000D4F81C0829788E4020EA0640C4F81C08C4
:102D80000020F0BD400D030010B5D0F8041821F06C
:102D90000201C0F804180320FDF746FB002010BD17
:102DA00010B5D0F8041841F00201C0F8041803204F
:102DB000FDF73AFB002010BD2DE9F0470E46044612
:102DC000DDE90A0A0025DDF83C80089F5FEA08017A
:102DD000A16B11D041F40021A1634FF00009C4F8A8
:102DE000009ED4F80018C4F80018012807D0D4F8C1
:102DF000000840F0030007E041F40011ECE7D4F8CC
:102E000000080BB140F00100C4F800081021204672
:102E100000F0BCFA204600F0A9FA4846C4F8109821
:102E2000C4F814984FF0FF31C4F81818C4F81C986F
:102E30004FF0904CFF230FE004EB4511D1F800292F
:102E4000002A02DAC1F800C901E0C1F80009C1F89E
:102E50001009C1F808396D1CAE42EDD800210FE011
:102E600004EB4112D2F8005B002D02DAC2F800CB6D
:102E700001E0C2F8000BC2F8100BC2F8083B491C75
:102E80008E42EDD8D4F8101821F48071C4F81018CF
:102E9000012F0AD11449C4F83018D4F83018134A55
:102EA0001143C4F83018D4F83018A0616FF0804096
:102EB00060611FB9A06940F01000A061A0690C49D1
:102EC0000843A061BAF1000F03D0A06940F00800E8
:102ED000A061B8F1010F03D1A06906490843A061C0
:102EE0000020BDE8F0870000000180000300010021
:102EF00000383C8004000040816821F001018160BD
:102F00000020704730B54D784D4C0B7800EB4313E3
:102F1000012D28D0D3F8105B6FF31205C3F8105BB6
:102F20000B7800EB4313D3F8105B2540C3F8105B1C
:102F30004B690BB18B684B610B7800EB4313D3F8F3
:102F4000104B44F40024C3F8104B0B7800EB4313F0
:102F5000D3F8104B8D68C5F312052C43C3F8104B02
:102F6000012A5CD061E04D69002DD3F810593BD0A7
:102F70006FF31205C3F810590B7800EB4313D3F825
:102F800010592540C3F810594C698B689C4200D9F0
:102F90004B610B7800EB4313D3F8104944F4002441
:102FA000C3F810490B7800EB4313D3F810494D696F
:102FB000C5F3120554EA0504C3F810490B7800EB79
:102FC0004313D3F8004944F00444C3F80049012AEC
:102FD0001ED04A6912B3D0F834280B7801219940E9
:102FE0000A43C0F8342829E02540C3F810590B786B
:102FF00000EB4313D3F8104944F40024C3F81049FC
:103000000B7800EB4313D3F810496FF31204D3E7A6
:103010000A69097800EB4110C0F814290EE00B781A
:1030200000EB4313CA68C3F8142B097800EB411076
:10303000D0F8001B41F00441C0F8001B002030BD57
:10304000FFFF07E00023C0F8103BD0F8103B43F42B
:103050000023C0F8103BD0F8103B43F01803C0F831
:10306000103BD0F8103B43F0C043C0F8103B01299F
:1030700005D1C0F8142B4FF08021C0F8001B0020B0
:1030800070474B780A7800EB4212012B0BD0D2F834
:10309000003B23F40013C2F8003BCA78032A17D080
:1030A000022A15D01DE0D2F8003923F40013C2F82B
:1030B0000039CA78032A01D0022A12D1097800EB1C
:1030C0004110D0F8001941F08051C0F8001908E013
:1030D000097800EB4110D0F8001B41F08051C0F896
:1030E000001B002070474B780A7800EB4212012B3E
:1030F00014D0D2F8003B002B05DBD2F8003B23F0C4
:103100008043C2F8003B097800EB4110D0F8001B67
:1031100041F40011C0F8001B00207047D2F80039BC
:10312000002B05DBD2F8003923F08043C2F80039C8
:10313000097800EB4110D0F8001941F40011C0F8F3
:103140000019E9E778B54E786FF06045834C0B784D
:1031500000EB4313012E2FD0D3F8106B6FF3120640
:10316000C3F8106B0B7800EB4313D3F8106B2640B9
:10317000C3F8106B4B69002B7DD08C6823445B1E19
:10318000B3FBF4F39BB20C7800EB4414D4F8106B4F
:1031900005EAC3452E43C4F8106B0C7800EB4414C9
:1031A000D4F8105B8E685E43C6F312031D43C4F867
:1031B000105B012A73D0B2E04E6966B3D3F8106990
:1031C0006FF31206C3F810690B7800EB4313D3F8C2
:1031D00010692640C3F810694C698B681C44641E52
:1031E000B4FBF3F305EAC3440B7800EB4313D3F8C5
:1031F00010592C43C3F810490B7800EB4313D3F854
:1032000010494D69C5F312052C43C3F81049CB781A
:10321000012B16D027E0D3F810592540C3F81059D8
:103220000B7800EB4313D3F8104944F40024C3F89F
:1032300010490B7800EB4313D3F810496FF31204D5
:103240000FE00B7800EB4313D3F8104924F0C0448F
:10325000C3F810490B7800EB4313D3F8104944F03E
:103260000054C3F81049012A12D0CB78012B17D093
:103270004B692BB300E037E0D0F834380D780124E7
:10328000AC402343C0F83438CB78012B08D017E08A
:103290000C7800EB44140B69C4F81439F4E738E0F7
:1032A000D0F80838DB050B7800EB4313D3F800495E
:1032B00002D444F0005401E044F08054C3F80049C3
:1032C0000B7800EB4313D3F8004944F00444C3F8EF
:1032D0000049CB78012B3ED100928A8A93B20A78BA
:1032E000C96800F0E7F836E00B7800EB4313D3F839
:1032F000104B8D68C5F312052C43C3F8104B0B78A7
:1033000000EB4313D3F8104B44F40024C3F8104BE4
:103310004FE70B7800EB4313CA68C3F8142BCA7845
:10332000012A0FD1D0F80828D2050A7800EB421202
:10333000D2F8003B02D443F0005301E043F0805345
:10334000C2F8003B097800EB4110D0F8001B41F0B7
:103350000441C0F8001B002078BD0000FFFF07E01B
:10336000816841F001018160002070470021102236
:103370000261054A491C914201D903207047036943
:10338000DB06F7D400207047400D03000022202305
:1033900043EA811101610549521C8A4201D9032087
:1033A000704703699B06F7D400207047400D030067
:1033B0000021D0F8082812F0060F15D0D0F8082800
:1033C000C2F34102012A0CD0D0F80828C2F341020E
:1033D000032A06D0D0F80808C0F34100022802D022
:1033E00002E0032100E0022108467047406900F036
:1033F00001007047D0F81818D0F81C08084080B2B7
:103400007047D0F81818D0F81C080840000C704716
:10341000D0F81038D0F83428CA4002F0010243EA4C
:10342000C21200EB4110D0F808091040704700EBC1
:103430004111D1F8081BD0F81408084070474169C1
:1034400080690840704710B503460020D21C9208DE
:1034500003F5805303E01C6841F8044B401C904284
:10346000F9D3084610BD10B5C26822F0C042C26050
:10347000012901D021B107E0C16841F0005102E00B
:10348000C16841F08041C1603220FCF7CDFF0020CF
:1034900010BDD0F8002822F4FE62C0F80028D0F851
:1034A00000284FF4FE6303EA01110A43C0F8002824
:1034B0000020704730B50024039D6DB9DB1C9B08CC
:1034C00000EB023000F5805004E000BF51F8042BFF
:1034D0000260641C9C42F9D3002030BDFEE702E08C
:1034E00008C8121F08C1002AFAD17047704700208F
:1034F00001E001C1121F002AFBD1704710B500285E
:1035000021D0114B0022001F196803E0814203D82B
:103510000A4649680029F9D152B11368841A9C42BD
:1035200004D1006818441060104602E0506000E0CA
:10353000186039B102680B1A934203D10B681A4420
:1035400002604968416010BDD801002090B0FDF7CD
:103550006DF8FEF707FBFEF71DFA21481F494FF4EF
:10356000E13500240160C0E901540C26C460C0E9C3
:1035700004468461C461FEF734F91948194940389A
:103580000160C0E90154C460C0E904468461C461BB
:10359000FEF727F9142214496846FCF7A0FE002123
:1035A000684600F06DF8114C0F4914222060143168
:1035B00005A8FCF794FE002105A800F061F80A496F
:1035C0006060142228310AA8FCF789FE00210AA8AD
:1035D00000F056F8A06000F04EF8FEE7004400400E
:1035E00020020020001001403841000800000020A7
:1035F00001460020842900D0C81C7047F0B50B306C
:10360000154D20F007010024144A0FE003688B4297
:103610000BD38B4205D95E1A43184768C3E900678C
:1036200000E04368136002C004E0021D1068002837
:10363000ECD12046002802D1286808B10020F0BD56
:10364000064A07481060074A121A22F00702C0E92A
:10365000002401202860D7E7DC010020D8010020E9
:10366000A4570020A059002010B500B9012000F097
:1036700071FB002010BD10B500F092FB002010BDC2
:103680003EB504460D46B0F90800FFF7B1FF02A9A8
:10369000CDE90001208A2B4682B2D4E9001000F067
:1036A00059FC012801D000203EBD02983EBD00001B
:1036B0002DE9F041184C0F460546E6682068001DCC
:1036C00000F092FA38B9206890F82C100120884058
:1036D000216981432161681C07D137B12168BDE8A8
:1036E000F0410E48091D00F0B7BA20683544B542D4
:1036F0004560216805D2A06BBDE8F041091D00F0CE
:1037000093BA606B091D00F08FFAA06A854200D25F
:10371000A562BDE8F0810000600000208C1B002045
:103720002DE9F041054600F0A3FA2E4CA068401C9C
:10373000A06020682C4F10B1606940B32DE0256077
:10374000A068012829D1002606EB860007EB80003F
:1037500000F05CFA761C072EF6D323488C3000F07C
:1037600055FA2148A03000F051FA1F48B43000F05B
:103770004DFA1D48C83000F049FA1B48DC3000F013
:1037800045FA19488C3060631430A06305E0206866
:10379000E96AC06A884200D82560606A401C60629D
:1037A000E96A0120226988401043206101EB810011
:1037B00007EB8000291D00F04FFA00F079FA6069EC
:1037C00000280CD02068E96AC06A884207D20749FD
:1037D0004FF080500860BFF34F8FBFF36F8FBDE88D
:1037E000F081000060000020B01A002004ED00E02D
:1037F00070B5114E114C17E000F006FB3068B8B1FF
:1038000000F038FC00F034FAF068C568281D00F0BC
:10381000EBF9A068401EA0606068401E606000F088
:1038200047FA284600F00CF860680028E4D170BD23
:1038300000F020FCF8E70000781B0020600000206A
:1038400010B50446006B00F047FA2046BDE8104072
:1038500000F042BA10484FF47051420706D0C01D24
:103860000D4920F00700411AC1F570510B4A0023A1
:103870000144C2E900030839103A21F00701116040
:103880004B600B600B1AC0E9001393604FF00040CF
:103890005360D06070470000A01B0020AC000020E7
:1038A000074C4FF08056074DFFF7A2FF2068012814
:1038B000FAD92E60BFF34F8FBFF36F8FF4E700008C
:1038C000B01A002004ED00E02DE9F0479A46DDE94A
:1038D000098481466FF00303206B03EB82021044DE
:1038E000089D20F00706700707D0502080F311884C
:1038F000BFF34F8FBFF36F8FFEE723180A5C83F887
:1039000034200A5C12B1401C1028F6D3002784F83A
:103910004370072D00D30625E562C4E91157201D29
:1039200000F07FF904F1180000F07BF92461C5F183
:1039300007006462A061E76484F85070524649460B
:10394000304600F0BFF82060B8F1000F01D0C8F891
:103950000040BDE8F087000030B5114900E0114695
:103960000A688242FBD34B685C18844203D14068EA
:1039700018444860084643681C18944209D1084C12
:10398000103C2468A24209D052681A4442600A6876
:1039900012680260814200D0086030BD0460F9E71F
:1039A000AC0000200648416B096829B1416BC96829
:1039B000C9684968816270474FF0FF31FAE700003B
:1039C0006000002008484068401C4FF0500080F321
:1039D000118804D0BFF34F8FBFF36F8FFEE7BFF3A3
:1039E0004F8FBFF36F8FFEE7B40000202DE9F04149
:1039F0000546002700F008FA314E306808B9FFF795
:103A000029FFF06805424BD1C5B3083568070ED0D1
:103A100005F00700C0F108000544680707D05020F2
:103A200080F31188BFF34F8FBFF36F8FFEE72DB385
:103A30007068854234D82248103001460C6801E095
:103A400020460C466168A94202D221680029F7D1BC
:103A500031688C4224D007682168016060680837AB
:103A6000411B10290FD96019420708D0502080F35C
:103A70001188BFF34F8FBFF36F8FFEE710E04160F7
:103A80006560FFF769FF61687068401A7060B2682E
:103A9000904200D2B060F06801430020C4E9000108
:103AA00000F0E8FA780707D0502080F31188BFF3C0
:103AB0004F8FBFF36F8FFEE73846BDE8F0810000FF
:103AC0009C00002010B5031F4FF080741C601B1F6A
:103AD00021F001011960191F044B0B6014390A60B1
:103AE000091F6FF0020244380A6010BDC539000892
:103AF00000B587B01C2206A16846FCF7F0FB4FF426
:103B0000FA731A2269460948FDF7E6FE07B000BDC0
:103B100068656C6C6F2066726F6D20646566617598
:103B20006C74207461736B200D000000E0010020B4
:103B300000B585B0142206A16846FCF7D0FB4FF40F
:103B4000FA73142269460748FDF7C6FE05B000BDAA
:103B500068656C6C6F2066726F6D207461736B208A
:103B600032200D00E001002000B585B0142206A12E
:103B70006846FCF7B4FB4FF4FA7314226946074811
:103B8000FDF7AAFE05B000BD68656C6C6F2066721B
:103B90006F6D207461736B2033200D00E0010020F5
:103BA000074D4FF480444FF4FA7600BFFFF7C0FF93
:103BB00021462846FCF722FD3046FFF755FDF5E784
:103BC000000C0240074D4FF400444FF47A7600BFDA
:103BD000FFF7CAFF21462846FCF710FD3046FFF7E5
:103BE00043FDF5E7000C0240D0E9013201699A601B
:103BF000D0E901235A604A68824201D182684A6052
:103C0000002202610868401E0860704700F1080148
:103C10004FF0FF32C0E90112C16001610021016073
:103C2000704700210161704730B50B685A1C02D003
:103C300000F1080202E0026904E0224654682568A7
:103C40009D42FAD953684B6099608A60516008615F
:103C50000168491C016030BD42684A6093688B600E
:103C600093685960916008610168491C0160704760
:103C7000502080F31188BFF34F8FBFF36F8F0A4935
:103C80004868401C486001280CD10848006810F0C2
:103C9000FF0F07D0502080F31188BFF34F8FBFF381
:103CA0006F8FFEE770470000B400002004ED00E0D5
:103CB0000849486828B1401E486001D180F3118846
:103CC0007047502080F31188BFF34F8FBFF36F8F81
:103CD000FEE70000B400002070B5002827D0144D86
:103CE000A0F108046168E868014207D1502080F320
:103CF0001188BFF34F8FBFF36F8FFEE722683AB191
:103D0000502080F31188BFF34F8FBFF36F8FFEE712
:103D10008143616000F078F8606869680844686011
:103D20002046FFF719FEBDE8704000F0A3B970BD52
:103D30009C00002006484FF47A710068B0FBF1F156
:103D40004FF0E020491E41610721016170470000EA
:103D50005C00002010B5020014D00F48006B38B191
:103D6000502080F31188BFF34F8FBFF36F8FFEE7B2
:103D700000F04AF800211046FFF79AFC00F07AF9AB
:103D8000002807D105494FF080500860BFF34F8FDE
:103D9000BFF36F8F10BD00006000002004ED00E055
:103DA0001CB515480024CDE900402346802213A10C
:103DB000144800F0CFF8012809D0401C1AD1502037
:103DC00080F31188BFF34F8FBFF36F8FFEE7502052
:103DD00080F31188BFF34F8FBFF36F8F06484FF00A
:103DE000FF312C38816201214161C460BDE81C4073
:103DF00000F040B81CBD00008C00002049444C4538
:103E000000000000A13800080248016B491C016352
:103E100070470000600000201448016B11B10121BF
:103E2000C16170470021C1610169B1FA81F1C1F13D
:103E30001F0101EB81020E4951F822306BB101EBF9
:103E4000820101F108034A6852684A609A4201D12E
:103E500052684A60D16801607047502080F3118831
:103E6000BFF34F8FBFF36F8FFEE7000060000020AD
:103E7000B01A00201CB532480168324A914207D17D
:103E8000502080F31188BFF34F8FBFF36F8FFEE791
:103E900000682C49491E884207D1502080F31188C0
:103EA000BFF34F8FBFF36F8FFEE72749087801906C
:103EB000FF20087008788DF800009DF800009DF83C
:103EC000002000F0F000904207D0502080F31188CD
:103ED000BFF34F8FBFF36F8FFEE79DF800001B4AC3
:103EE00000F0500010700720906005E09DF8003051
:103EF0005B008DF80030401E9DF800301B06F5D4A5
:103F0000000200F4E0609060019808700C482030D6
:103F1000016841F470010160016841F07041016085
:103F2000FFF708FF00205060FCF758F908480168C7
:103F300041F040410160FCF741F900201CBD000048
:103F400000ED00E071C20F4100E400E0B400002089
:103F500034EF00E02DE9FF5F8346DDE90E879946E7
:103F600016468A469000FFF741FD05001AD05420FE
:103F7000FFF73CFD040012D025630021CDE902418A
:103F8000CDE900874B46324651465846FFF79CFC28
:103F90002046FFF7C5FB012004B0BDE8F09F28468E
:103FA000FFF79AFE4FF0FF30F6E700002DE9F041F1
:103FB0002E4C0027206B40B1A069401CA061E06935
:103FC00000B101273846BDE8F081E668761CE6605E
:103FD00013D1606B006838B1502080F31188BFF3B3
:103FE0004F8FBFF36F8FFEE7606BA16B6163A063C0
:103FF000206A401C2062FFF7D5FCA06ADFF87080C1
:10400000864209D3606B006880B1606BC068C56888
:10401000686886420DD2A0622068C06A00EB800109
:1040200058F821000128CAD90127C8E74FF0FF300E
:10403000F1E7281DFFF7D8FDA86A18B105F11800AF
:10404000FFF7D2FDE86A0121226981401143216115
:1040500000EB800108EB8100291DFFF7FDFDE86AF8
:104060002168C96A8842CDD30127CBE760000020D0
:10407000B01A00202DE9F0472C4D00242746286B6C
:1040800038B1FFF7F5FD286B401E2863286B40B15F
:1040900046E0502080F31188BFF34F8FBFF36F8F3E
:1040A000FEE7A968224E0120D1B3A6F1B4098046EB
:1040B0003068E8B1F068C46804F11800FFF794FDB7
:1040C000201DFFF791FDE06A2A6908FA00F111430B
:1040D000296100EB800109EB8100211DFFF7BCFD88
:1040E000E06A2968C96A8842E2D3C5F81C80DFE724
:1040F0000CB1FFF757FCAC6944B14646FFF756FFD9
:1041000000B1EE61641EF9D10020A861E86938B100
:104110000849012738070860BFF34F8FBFF36F8F3F
:10412000FFF7C6FD3846BDE8F087000060000020BC
:10413000641B002004ED00E09C410008151B0008F2
:104140000000000000000000800000008C4100081A
:10415000A13B0008000000000000000080000000FB
:1041600094410008C53B000800000000000000006A
:1041700080000000000000000000000001020304B5
:104180000607080900000000010203047461736B54
:10419000320000007461736B330000006465666177
:1041A000756C745461736B00C841000800000020F6
:1041B000E0010000880300088C420008E0010020B4
:1041C000C05B0000EE340008C113FD2214082D234B
:1041D0001B0839041A61041A8D041ADD141A09081F
:1041E000170403090412011402020216408304405A
:1041F0005726020102030113E9031B08E5041AE133
:1042000004130D041A0813118210035924F41AAA76
:1042100001C1130A0632022A40801C0902439F1181
:1042200025C03209041B01020B13052416100105D9
:1042300024011009010424020205240617010705C0
:104240008203081C100904D5320A1D070501024328
:104250002C070581070938442A40072A8107112BBA
:104260000907440A2204440A16FF4413E9201B08E4
:10427000570413C52142081A930C1A15041A29046D
:0C428000C12AD12419041ADD049AB91CCB
:040000050800018965
:00000001FF
